:020000040000fa
:100000000200d2021003000000000002100b0000ea
:10001000000000021013000000000002101b00008e
:10002000000000021023000000000002102b00005e
:10003000000000021033000000000002103b00002e
:10004000000000021043000000000002104b0000fe
:10005000000000021053000000000002105b0000ce
:10006000000000021063000000000002106b00009e
:10007000000000021073000000000002107b00006e
:10008000000000021083000000000002108b00003e
:10009000000000020da7e490000278a4790180021c
:1000a000f0a3d8fcd9fa7aa57b009000e47809790e
:1000b000018015e493a3ad82ae838a828b83f0a383
:1000c000aa82ab838d828e83d8e9d9e71203b1125d
:1000d0000dc675d00075813f751c8075931e5392b7
:1000e000fe0200960010000000000200bb0102e7c3
:1000f00022c0925392fec082c08389828a83bb0051
:1001000003e08002e493d083d082d09222bb00151a
:10011000c0925392fec082c0838a838982f0d083ca
:10012000d082d09222bb0101f722cac0e0e6f309d7
:1001300008dafad0e0fa22cac0e0e0f208a3dafa5c
:10014000d0e0fa22600c08c6c313c618c613c6d581
:10015000e0f422700422600d18c6c333c608c6330b
:10016000c6d5e0f41822e4735392fed083d08225e2
:100170001cf8c51cc39824fbcef208e520f208e960
:10018000c0e07908e709f208defad0e0f9eff208fa
:10019000d0e0fed0e0f208eef208e473a81ce2fe24
:1001a00008e208f520e9c0e07908e208f709dffa7b
:1001b000e208ffd0e0f9e208c0e0e208c0e0881cf5
:1001c0005392fe22e584f208e585f222e208f584e6
:1001d000e2f585227403800474028000c9c0e0e562
:1001e0001cc399f51cc912012ad0e0f922740380be
:1001f00000c8c0e0e51cc398f51cc8120137d0e068
:10020000f82275bc0075bc005392fe22800f8a82d2
:100210008b835392fee0f5bda3aa82ab83ecf8ed8d
:10022000f9e824ff1ce934fffde84970e15392fe30
:1002300022e5bdf9e5bcfae9fb5392fe227400f514
:10024000d374022408f5d25392fe22a2afe433f80d
:10025000c2af5392fe906270e0a2e740f5e9c3336b
:10026000906272f0906270e0d2e0f0e0a2e740fbb2
:10027000e8a2e092af2274fa120168a2af33f8c28a
:10028000afed900002f0eca3f0a37462f0a37473de
:10029000f0a3e4f0e9a3f0a37412f0a37442f0eb2e
:1002a000906272f0ea906271f07400f5d575d40234
:1002b00075d601906270e0d2e1f0e0a2e740fbe881
:1002c000a2e092af7f0102019c5392fe906276e021
:1002d00075c6807480659e70fa9062707408f02212
:1002e000c008c0098908750900740b780812015309
:1002f000fae5094480fbd009d0085392fe2274f736
:10030000120168909093e064bf7063e5c7f508122e
:10031000020275c7007c937d007a007b9012020c6c
:100320007c5d7d077aa37b9012020c909094e01480
:10033000f5097f00801674032ffef91202e0eec467
:10034000540ff5c77c007d0812020c0fefc395090e
:1003500040e48508c71202318a088b09a808a90958
:10036000909095e0687003a3e069703e8038e5c71f
:10037000f5087fa57e02eef91202e08a828b83eef9
:10038000c4540ff5c778007908e02fffa3e824ffd5
:1003900018e934fff9e84970f00eeec3943040d606
:1003a0008508c7ef70047901800279007f0402019b
:1003b0009c5392fe900001e090001af0e59d5418c5
:1003c00064107005e0a2e04035e5c7f8790075c714
:1003d00000909000e0640270010988c7e9a2e05033
:1003e0001d1202fee960179000017403f00592905f
:1003f00000a5e0f582a3e0f58305921201661202e2
:10040000c9900001e4f012023d12069e1206ce12bf
:10041000071e80fb74f8120168151c151ca81c121d
:1004200001c490620ee0fee4f0906211e0ffa2e4ed
:1004300050197480f09000227407f01206276006ad
:10044000120643120166900022e4f0efa2e2500b84
:10045000906211e4f0900022f08060900022e0f8b9
:100460007402687042906216e0ff9000391201ed4c
:10047000eff97a207b621206da051c051c051c8f39
:100480000890003c12061c12060f2f1206321206ac
:100490002a6004744080027448906211f0e8496058
:1004a000030205fc0205df7406687006120643129b
:1004b0000166900022e06003020589efa2e040039c
:1004c0000205fc750831750900750a0078081201eb
:1004d000d479087a207b621206da051c051c051cfb
:1004e00090003ee4f0a3f0900031e054e0600e2470
:1004f000e0606a24a0604024e06071807ea3e01484
:10050000602624fe601d24fe600a24fc601f24fe79
:1005100060208067120a8e900022e0640470647488
:10052000608062120a8880ef120a8280ea120bbe93
:1005300080e5120cf580e0a3e0600e24fa600f2441
:10054000fe601024fe601180321208be80c9120abb
:10055000d680c4120b9880bf120c9780ba90003ed0
:100560007446f0a37407f012074680ab90003e7407
:100570000cf0a37408f012080c809c900022740404
:10058000f0809c7440906211f0900022e0f87401b9
:1005900068705e7f0290003ce0f8a3e0f9c3e89445
:1005a00020e994005007e8f50a7f0a8003750a20c5
:1005b0009000391201eda90a7a207b621206f30538
:1005c0001c051c051c850a0812060f250812063298
:1005d00012061cef906211f0e50ac39420501d1220
:1005e00006276006120643120166900022e4f0809e
:1005f0000b7405687006120643120166ee90620ed7
:10060000f0a81c1201cc051c051c7f0302019c9064
:100610000039e0f9a3e0faa3e0fbe922c3e0950882
:10062000f0a3e09400f02290003ee0f8a3e0f9e8a7
:100630004922f9e43afa900039e9f0a3eaf0a3eb91
:10064000f0a322059290003ee0f582a3e0f5830539
:100650009222c008c0097800742328f582e434008f
:10066000f583e95392fef008e8c3940540ea780068
:10067000742828f582e43400f583e9f008e8c3948f
:100680000540edd009d008225392fe90001b740261
:10069000f0a3e4f0900022f0790312065222c00881
:1006a000c00975082175090078081201d87c007d01
:1006b000007a407b00120dca051c051c90001b74bb
:1006c00002f090620f04f0e0a2e750fb80b553f413
:1006d000fed29043fe015392fe2212070c6010538b
:1006e00092fee012010de9240109e43afadcf0532c
:1006f00092fe2212070c60101200ec5392fef0e9f9
:10070000240109e43afadcf05392fe228a828b83b8
:10071000e9fca81ce2f908e2fa08e2fbec22eec0d0
:10072000e05392fe906206e0f8906202e0fe906272
:1007300004e0e8a2e25003120688eea2e0500312a1
:100740000414d0e0fe2274f7120168900032e070c9
:10075000030207f114600302080190001a7401f00b
:10076000900022e0f87038900037e0f8a3e0f9e854
:1007700049700d9000ab7402f0900022e40208066c
:100780009000397461f0a37400f0a3e4f0a3e8f0e2
:10079000a3e9f09000227402f09000ab048067742b
:1007a0000268705d900033e02440f508a3e0340057
:1007b000f509e508541f701285080a85090b7405b0
:1007c000780a120144a90a12024b900037e0240370
:1007d00054fcf97c617d0074047808120153aa0866
:1007e000ab09120276900022e4f09000ab74058011
:1007f0001590001a7402f0900022e4f075c9088088
:10080000069000227404f07f0402019c5392fe9033
:100810000032e06403701a90003974a7f0a37400ea
:10082000f0a3e4f0a37406f0a3e4f090002204f037
:100830002280009000227404f0225392fe9000a1c6
:10084000e4f0a3740ff02274fa120168151c151c51
:10085000a81c1201c4eafcebf87a007b000880387f
:10086000e8604d05929000a1e0fda3e0f5838d8244
:10087000a3e493fdec6d6034e96d70099000a1e094
:10088000faa3e0fb189000a1e02efea3e03400ffe5
:100890009000a1eef0a3eff09000a1e0f584a3e0ba
:1008a000f585e4059293fe70b7e860047a007b005a
:1008b000a81c1201cc051c051c7f0102019cc0086c
:1008c000120c896003020996a3e0f8a3e06003021a
:1008d0000996a3e064027002a3e060030209969007
:1008e0000031e02480600914604f14605c020996b6
:1008f000e8600302099690002ee06004780180020f
:1009000078009000a3e8f0a3e4f090002de0600ae6
:100910009000a3e04402f0a3e4f0900022e064041d
:10092000601490003974a3f0a37400f0a3e4f0a362
:100930007402120cecf0d0082290001be0640470ea
:10094000559000a3e4f0a380d0e8547ff508900010
:100950001be064047040e508c394065039741b25fd
:1009600008f582e43400f583e854806018a3a3a35b
:10097000a3a3a3a3e064037004780180027800902d
:1009800000a3e88091e582240cf58250020583e003
:10099000640370e980e39000227404809874f91273
:1009a0000168151c151ca81c1201c4e9fa90003737
:1009b000120c8f6003020a6c90001be06404600b51
:1009c000900035120c8f6003020a6c900031e054e5
:1009d0001f6009146023146012020a6c900033e057
:1009e00064017015ea90002d020a71900035e05400
:1009f0007ff508900033e0600479008077e508c354
:100a000094065068e50890620ef0741b2508f58482
:100a1000e43400f585900035e054806021ea6004fc
:100a2000741080027440906211f0ea6004740380d4
:100a300001e40592a3a3a3a3a3a3a3f08025ea60e6
:100a400004742080027480906214f0ea60047403dd
:100a50008001e4c0e0e584240cf582e43585f5836b
:100a6000d0e0f05392fe90620ee480059000227474
:100a700004f07901a81c1201cc051c051c7f0202a0
:100a8000019c790012099d22790112099d2253923d
:100a9000fe900035120c8f7018a3120c8f701290fc
:100aa0000033e0f8a3e0f9e85480fae9fbea4b6090
:100ab00002801ce8906200f090001b6009e0640274
:100ac000700c7403f022e0640370037402f022904f
:100ad00000227404f02274f812016812083a90009f
:100ae00033e0faa3e0f914600814600d146031805b
:100af000377b007a0079018033eafb7a00790212b1
:100b00000847120b83e92402f9e43afa89828a83be
:100b1000e493f8740193f990003ce8f0a3e9801c99
:100b2000eafb7a00790380047b007a0012084712fe
:100b30000b83a37b801200eca3f0a3e4f0900039b8
:100b4000e0fca3e0fda3e0feec4d4e90002270041b
:100b500074048029e064046025900037e0faa3e083
:100b6000fb90003ce0f8a3e0f9c3ea98eb99500849
:100b700090003ceaf0a3ebf09000227401f07f03b8
:100b800002019c900039eaf0a3ebf0a37480f0908e
:100b90000039e0f9a3e0fa22120c897010a3120cbc
:100ba0008f700aa3e064017002a3e06003020acf21
:100bb000900039741cf0a37400120ce2f02274f857
:100bc00012016890001be064027003020c70900038
:100bd00035120c8f6003020c70a3120c8f6003029d
:100be0000c70900034e06003020c7012083a900020
:100bf00033e07003020c787b007a00790212084718
:100c00008a088b09ae08af09ee4f6064900033e0ac
:100c1000f88e828f83a3a3a3a3a3e493c0e0e8fa92
:100c2000d0e06a70d290001b7404f0e8a3f0750a5b
:100c3000008e828f83a3a3a3a3e493f8e50ac3984d
:100c40005044850a08741d2508f582e43400f583b4
:100c5000e4f07b007a0079041208478a828b83e5ee
:100c60008245836007a3a3a3e49370e6050a80c1cd
:100c70009000227404f0800e90001cf090001b7411
:100c800003f0f9120652020b7e5392fe900033e0fd
:100c9000f8a3e0f9e8492274f812016890001be01b
:100ca00064047019900031e064817011120c8c7032
:100cb0000c900037e064017002a3e060079000220e
:100cc0007404801a900035e0241df508a3e0340078
:100cd000f509900039e508f0a3e509120ce2f002ed
:100ce0000b7ef0a3e4f0a304120cec22f0a3e4f0da
:100cf000900022042274f9120168151c151ca81c0e
:100d00001201c490001be064046003020d9a90007d
:100d100031e064016003020d9a900037120c8f706d
:100d20007912083a7b007a0079021208478a828b8e
:100d300083e5824583600fa3a3a3a3a3e493f89064
:100d4000001ce06870de7b007a0279041208478a92
:100d5000828b83e582458360410592900033e0f801
:100d6000a3e0f9900035e0faa3e0fb858284858357
:100d700085a3a3e493fcea6c7001eb600d0592a3dc
:100d8000a3a3e493fce86c4970bc741d2af582743b
:100d9000003bf583e85392fe80059000227404f036
:100da000020a745392fe2274fa120168151c151c73
:100db000eafeebffa81ceef208eff2aa1cab937957
:100dc00001120da380ee1200932274fa120168e55d
:100dd0001c2406f8e2fe08e2ffee4f6014ecf88aed
:100de000828b83e8f0a3ee24ff1eef34ffff4e70ea
:100df000f27f0102019cffffffffffffffffffffec
:100e0000fffffffffffffffffffffffffffffffff2
:100e1000ffffffffffffffffffffffffffffffffe2
:100e2000ffffffffffffffffffffffffffffffffd2
:100e3000ffffffffffffffffffffffffffffffffc2
:100e4000ffffffffffffffffffffffffffffffffb2
:100e5000ffffffffffffffffffffffffffffffffa2
:100e6000ffffffffffffffffffffffffffffffff92
:100e7000ffffffffffffffffffffffffffffffff82
:100e8000ffffffffffffffffffffffffffffffff72
:100e9000ffffffffffffffffffffffffffffffff62
:100ea000ffffffffffffffffffffffffffffffff52
:100eb000ffffffffffffffffffffffffffffffff42
:100ec000ffffffffffffffffffffffffffffffff32
:100ed000ffffffffffffffffffffffffffffffff22
:100ee000ffffffffffffffffffffffffffffffff12
:100ef000ffffffffffffffffffffffffffffffff02
:100f000012010002000000205824feff0000010230
:100f1000030109021b0001010480250904000000ef
:100f2000fe01020409210d03e84000010104030948
:100f300004120342006c00750065006700690067d9
:100f400000610016034c006f007700200045006e22
:100f50000065007200670079000a03310032003337
:100f6000003400080344004600550000ffffffff67
:100f7000ffffffffffffffffffffffffffffffff81
:100f8000ffffffffffffffffffffffffffffffff71
:100f9000ffffffffffffffffffffffffffffffff61
:100fa000ffffffffffffffffffffffffffffffff51
:100fb000ffffffffffffffffffffffffffffffff41
:100fc000ffffffffffffffffffffffffffffffff31
:100fd000ffffffffffffffffffffffffffffffff21
:100fe000ffffffffffffffffffffffffffffffff11
:100ff000ffffffffffffffffffffffffffffffff01
:101000000211080230a9ffffffffff023c10ffffa3
:10101000ffffff023cbfffffffffff023d76ffff28
:10102000ffffff022694ffffffffff0239d6fffffd
:10103000ffffff023e58ffffffffff023d16ffffcd
:10104000ffffff023c9affffffffffffffffffffd5
:10105000ffffff02308fffffffffffffffffffffdc
:10106000ffffffffffffffffffffff023b4dffff03
:10107000ffffff023de8ffffffffff023bd0ffff46
:10108000ffffff0230b4ffffffffffffffffffff87
:10109000ffffffbf2e0e7e000000000000000000da
:1010a0000000387582fd75837f7400121123e47986
:1010b000347802b800028004f709d8fce4900302f7
:1010c000789a79068002f0a3d8fcd9fa7a9b7b083b
:1010d000901144786379028015e493a3ad82ae83c6
:1010e0008a828b83f0a3aa82ab838d828e83d8e918
:1010f000d9e775823c7583f774021211237582d388
:101100007583fd740212112375d00075813f75310e
:1011100000753202753303759f007593005392fe7c
:101120000210aec09ff59fe473d09f225392fed071
:1011300083d082c09fe493c0e0740193c0e0740246
:1011400093f59f220300000201020300000f00c379
:10115000a88ee8b19dcf7f5eb98b9f41efb055f46b
:1011600001fa00960064004b0032001e001400d605
:10117000be898e000106021213151429417671fff3
:10118000c1fbe84c90728be7b3518963ab23230218
:10119000841872aa612f3b51a8e53749fbc9ca0cd4
:1011a00018532cfd45e300400000fffffffffaff4e
:1011b000ffff00008000620000000500060007003d
:1011c0000000010001000001000102020300020012
:1011d00000000000020201000240420f001900005e
:1011e00000093d0000e4fffffffb349b5f8000002f
:1011f00080001000000000000000800100010000dd
:10120000000000010805000000ff000000000000d1
:1012100007030000008000010000800000040000bf
:1012200000000007090000000d0000010407000095
:101230000000000201000002020000070a0000088e
:1012400005bc1ac21ac81ace1ad41ada1a441a5a83
:101250001c3c1c141da81cae1c80000405020000d0
:1012600000800004060600000080000402800004e4
:1012700004800002000b000000800006001417cc60
:101280001318194414ba1c601c821b021d3e1a4e0e
:101290000601ffffff0000000080ffffffff0000ce
:1012a0000000c000000012112c2bbe0212112c43b2
:1012b000be0212112c6ebe0212112cbbbe02121104
:1012c0002cd3be0212112cfbbe0212112c4bbf02fa
:1012d00012112c7bbf0212112cdcbf0212112cf850
:1012e000bf0212112c14c00212112c39c0021211ab
:1012f0002c92c00212112c21c50212112cd5c5024c
:1013000012112cbef90212112cd6f90212112c471f
:10131000fa0212112c8afa0212112c05e3021211a0
:101320002c99e30212112c0fe40212112c25e40275
:1013300012112c51e40212112c66e40212112cbf7e
:10134000e40212112ce0e40212112c3ee50212110b
:101350002c83e50212112cf4e50212112c1fe60277
:1013600012112ca3e60212112cd2e60212112cf15a
:10137000e60212112c05e70212112c4ae7021211a3
:101380002c98e70212112c4bde0212112c67de02a0
:1013900012112c9dde0212112cabde0212112cdc7c
:1013a000de0212112c09df0212112c12df021211bf
:1013b0002c55df0212112cdbdf0212112c48e00247
:1013c00012112c99e00212112cc8e00212112c1cef
:1013d000e10212112ceee10212112cf9e1021211bc
:1013e0002c2ce20212112c5de20212112caee20250
:1013f00012112cebe20212112cc4fc0212112ce48b
:10140000fc0212112c0dfd0212112c867f0012110c
:101410002c9a7f0012112cf17f0012112ca4fd02d6
:1014200012112cbbfd0212112c7cff0112112ca9f0
:10143000ff0112112cfd750012112c64760012119f
:101440002c7b760012112cbf760012112c05770030
:1014500012112c59770012112cac780012112c8526
:10146000790012112c2c7a0012112c507a001211d2
:101470002c927a0012112c2d7b0012112c7b7b00f8
:1014800012112cd97b0012112cec7b0012112cdcd8
:101490007c0012112cde7d0012112c507e001211e6
:1014a0002c00800112112ca6810112112c2a82011c
:1014b00012112c78830112112ce7830112112c21b7
:1014c000840112112ceb840112112c798501121167
:1014d0002c58860112112c6c870112112c5e880188
:1014e00012112c98890112112cf1890112112c5919
:1014f0008a0112112cd68a0112112c778b0112113c
:101500002ce98b0112112c828c0112112ce88c0118
:1015100012112c568d0112112cab8d0112112c338e
:101520008e0112112ce98e0112112c9f8f011211c4
:101530002c61910112112c92930112112cd793015d
:1015400012112c53940112112cbc940112112c0a6b
:10155000950112112cb6960112112c5697011211f9
:101560002ce2970112112c23980112112ca499013d
:1015700012112c059a0112112c279b0112112c2eed
:101580009c0112112c5d9d0112112c919e011211d2
:101590002c69a00112112c27a30112112cbfa30149
:1015a00012112c7ca40112112c6da50112112ccd4d
:1015b000a50112112c2caa0112112ca7ac01121199
:1015c0002c75ad0112112cb5af0112112ccbb0014d
:1015d00012112cf4b10112112c0bb20112112c9e1c
:1015e000e70212112cdde70212112c0ae802121197
:1015f0002c37e80212112c24e90212112cfbe9020b
:1016000012112c6afe0112112cc3fe0112112c249e
:10161000ff0112112ce1b80112112cffb8011211b7
:101620002c1cb90112112c39b90112112cbfb901ae
:1016300012112cd7bb0112112c3dbc0112112cad83
:10164000bc0112112cedbc0112112c21bd01121193
:101650002c63bd0112112cd1bd0112112c7fbe01d2
:1016600012112c97be0112112ccebf0112112cfcad
:10167000c10112112c82c20112112cb6c201121129
:101680002cf4c30112112c12c50112112c33c50107
:1016900012112c51c50112112c8dc50112112cc033
:1016a000c50112112c6fc90112112c97c901121119
:1016b0002ce3c90112112ca7cf0112112cf3cf0179
:1016c00012112c34d00112112ce0d00112112ca1d6
:1016d000d10112112c2ed40112112c7dd501121121
:1016e0002cedd50112112c37d80112112cb2d801d2
:1016f00012112cf6d80112112c42d90112112c9a78
:10170000d90112112c3bda0112112c85da011211c8
:101710002ce0da0112112ceada0112112c1ddc0185
:1017200012112cb0dc0112112c70dd0112112c0de4
:10173000de0112112ca3df0112112cc4df011211e2
:101740002c1fe20112112c39e30112112cd9e301f3
:1017500012112c4de40112112ce9e40112112cf4a8
:10176000e60112112c05e70112112c0fe7011211ed
:101770002cf6e80112112c5be90112112c8ae90107
:1017800012112cf8e90112112c27ea0112112ccfa9
:10179000ea0112112c4deb0112112cb7eb011211c1
:1017a0002c2dec0112112c63ec0112112c98ec0180
:1017b00012112cb7ec0112112c16ed0112112c2470
:1017c000ed0112112c63ed0112112cd2ed01121159
:1017d0002cf1f20212112cadf30212112ccff302f4
:1017e00012112c1af40212112c5df40212112ce7c2
:1017f000fb0212112c4ea00212112c7aa00212111f
:101800002cc2a00212112c17a10212112c78a102d5
:1018100012112cd9a30212112c0ba50212112c1893
:10182000a80212112c5ca80212112c67a902121135
:101830002c69aa0212112ce4ab0212112c59ac0231
:1018400012112c6cad0212112c41ea0212112c6df6
:10185000ea0212112c84ea0212112c88ea021211f7
:101860002c22eb0212112c47ec0212112c008002e8
:1018700012112c61800212112c7e800212112cabed
:10188000800212112cd7800212112c0b810212112e
:101890002c5a810212112c89810212112cec810226
:1018a00012112c49820212112c17830212112c9151
:1018b000830212112c32850212112cea85021211b8
:1018c0002c98880212112c3e8c0212112c7f8c0253
:1018d00012112cd88c0212112c888d0212112c6638
:1018e0008f0212112cf68f0212112c379002121156
:1018f0002c8d900212112ce5900212112c0b9102ea
:1019000012112c5e910212112c9f910212112c10b7
:10191000930212112c31940212112c4294021211d2
:101920002cc6950212112cdc950212112c04960281
:1019300012112ca4960212112cb9960212112ceb42
:10194000960212112cf1970212112c889802121192
:101950002cbe980212112c06990212112cfa99022f
:1019600012112c559a0212112c3c9b0212112caf11
:101970009b0212112cf39b0212112cd99c02121102
:101980002c359f0212112c659f0212112ce59f022b
:1019900012112caff40212112cbcf40212112cdf24
:1019a000f40212112c22f60212112c2ff60212113f
:1019b0002c5df60212112c8fd90212112caed90215
:1019c00012112c79da0212112c1fdc0212112c7d5b
:1019d000dc0212112cafdd0212112c18de021211e2
:1019e0002c52fb0212112c80fb0212112caafb02ba
:1019f00012112ce0ec0212112c69ed0212112c9b39
:101a0000ed0212112c0bee0212112cadee0212118e
:101a10002cd5ee0212112c424d0012112c984d00c3
:101a200012112c9e4f0012112c29510012112cef73
:101a3000510012112cff520012112c9d5300121153
:101a40002c1a540012112ccc540012112c345700b3
:101a500012112cb4570012112c18580012112cc25c
:101a6000580012112cd5590012112cda5a001211fb
:101a70002c5e5f0012112cad610012112c58640015
:101a800012112c19670012112cf9690012112cd8af
:101a90006b0012112c406e0012112ccd720012112d
:101aa0002c7e740012112cfc740012112c8675000f
:101ab00012112cda750012112c13f10212112c9153
:101ac000f10212112ca7f10212112cbdf102121118
:101ad0002cd3f10212112cf4f10212112c0af20291
:101ae00012112c20f20212112c8bad0212112c1ba0
:101af000ae0212112c9eae0212112cc4ae021211b3
:101b00002c90af0212112c46b00212112c86b0029a
:101b100012112c0cb10212112c7eb10212112ce008
:101b2000b10212112c5db20212112c70b20212110c
:101b30002c84b20212112cb9b20212112cebb20297
:101b400012112c1db30212112c63b30212112ca31b
:101b5000b30212112cf7b30212112c06b4021211a7
:101b60002c0fb40212112ca2b40212112cd9b502fe
:101b700012112cf1c50212112c00c60212112cee0a
:101b8000c60212112c00c70212112c8ec8021211ab
:101b90002c43c90212112cacc90212112cc5c90266
:101ba00012112cdbc90212112c2aca0212112c6d3f
:101bb000ca0212112cb7ca0212112c00cb02121148
:101bc0002c25cb0212112c45cb0212112c5ccb021e
:101bd00012112c84cb0212112cdacb0212112c31ef
:101be000cc0212112c7ecc0212112cc6cc02121186
:101bf0002cdacc0212112cebcc0212112cfccc02f0
:101c000012112c0fcd0212112c1ecd0212112c66b6
:101c1000f60212112c93f60212112c98ee011211f9
:101c20002c3fef0112112c97ef0112112cdaef016a
:101c300012112cadfb0112112cdffb0112112ce251
:101c4000fd0112112c26ef0212112c88ef02121145
:101c50002cacef0212112cfbef0212112c4ff002f0
:101c600012112cf0f00212112c09f10212112cfbae
:101c7000b50212112c18b60212112c28b70212113b
:101c80002c87b70212112c2fb80212112caeb902f8
:101c900012112c5aba0212112ca1ba0212112cffe5
:101ca000ba0212112c65bb0212112cb7bb02121121
:101cb0002c43bc0212112cbebc0212112c97bd0287
:101cc00012112c2dcd0212112c8ccf0212112cc00e
:101cd000cf0212112cdbcf0212112c0ed0021211e6
:101ce0002c3bd00212112c6bd00212112c9ad00274
:101cf00012112cced00212112cf6d00212112c335c
:101d0000d10212112c55d10212112c0ad202121139
:101d10002c58d20212112c73d20212112c1bf80271
:101d200012112c82f80212112ce2f80212112ce48a
:101d3000f80212112cfaf80212112c43f9021211b6
:101d40002cb8fa0212112cd6fa0212112cccd302a2
:101d500012112caed40212112c95d50212112c9d09
:101d6000d50212112ca5d50212112cfed50212118a
:101d70002ca0d60212112c9dd70212112cd0d70202
:101d800012112ca1d80212112cffd80212112ca36f
:101d9000100012112c57fc0212112c22fd021211fc
:101da0002c75fd02e76670100809e766700a0809dd
:101db000e76670040809e76622e066701008a3e091
:101dc00066700a08a3e066700408a3e06622c3e711
:101dd000960809e7960809e7960809e796a2d265ea
:101de000d03322c3e09608a3e09608a3e09608a3a8
:101df000e096a2d265d03322c021c3e096f5210837
:101e0000a3e096422108a3e096422108a3e096426f
:101e100021a2d265d033e5217001d3d02122c3e7be
:101e2000960809e7960809e7960809e79622c3e0ad
:101e30009608a3e09608a3e09608a3e09622c021a6
:101e4000c3e096f52108a3e096422108a3e096425c
:101e50002108a3e09645217001d3d02122bb0102c5
:101e6000e722c0925392fec082c08389828a83bbdc
:101e70000003e08002e493d083d082d09222bb00a2
:101e800015c0925392fec082c0838a838982f0d0ab
:101e900083d082d09222bb0101f722080808eac051
:101ea000e0ebc0e086f0e7a4fa180986f0e7a42a80
:101eb000fa180986f0e7a42afa180986f0e7a42a96
:101ec000fa1986f0e7a4fbe5f02afa190886f0e78c
:101ed000a42bfbe5f03afa190886f0e7a42bfbe502
:101ee000f03afa18180986f0e7a4c5f02bfbe43a9b
:101ef000fa1908e7c5f0c6a426f6e5f03bfbe43a7c
:101f0000fa1886f0e7a4f6e5f00826f6e43b08f6b2
:101f1000e43a08f6d0e0fbd0e0fa22e4cfc0e0e4f7
:101f2000cec0e0e4cdc0e0e4ccc0e075f020e62611
:101f3000f608e633f608e633f608e633f61818181e
:101f4000ec33fced33fdee33feef33ffc3ec9709ca
:101f5000ed9709ee9709ef97191919400fffec97c4
:101f6000fc09ed97fd09ee97fe191906d5f0bfecb7
:101f7000f709edf709eef709eff7191919d0e0fca9
:101f8000d0e0fdd0e0fed0e0ff22121ff2181818ba
:101f9000121f1b121fe119191922121fe119191919
:101fa000080808e618181820e7e0121f1b121ff295
:101fb00018181822090909e719191920e7dc080877
:101fc00008e618181820e703021f1b121ff2181842
:101fd00018121f1b121ff2181818121fe1191919d5
:101fe00022e4c397f709e497f709e497f709e49720
:101ff000f722e4c396f608e496f608e496f608e4b9
:1020000096f6226017080808c6a2e713c618c6137a
:10201000c618c613c618c613c6d5e0e9226016084e
:102020000808c6c313c618c613c618c613c618c6f2
:1020300013c6d5e0ea2270090808082260161818ad
:1020400018c6c333c608c633c608c633c608c63367
:10205000c6d5e0ea22e627f60809e637f60809e6db
:1020600037f60809e637f622e026f608a3e036f64a
:1020700008a3e036f608a3e036f622e026f008a32f
:10208000e036f008a3e036f008a3e036f022c3e61d
:1020900097f60809e697f60809e697f60809e6971d
:1020a000f622c3e0c696f608a3e0c696f608a3e0bb
:1020b000c696f608a3e0c696f622e657f60809e6a5
:1020c00057f60809e657f60809e657f622e056f6ed
:1020d00008a3e056f608a3e056f608a3e056f62259
:1020e000e647f60809e647f60809e647f60809e66e
:1020f00047f622e046f608a3e046f608a3e046f6d7
:1021000008a3e046f622e046f008a3e046f008a364
:10211000e046f008a3e046f022e667f60809e66725
:10212000f60809e667f60809e667f622e066f608ab
:10213000a3e066f608a3e066f608a3e066f622e0f0
:10214000f608a3e0f608a3e0f608a3e0f622e6f01e
:1021500008a3e6f008a3e6f008a3e6f022e0faa35d
:10216000e0fba3e0fca3e0fd22eaf0a3ebf0a3ec8c
:10217000f0a3edf022e0fca3e0fda3e0fea3e0ff6e
:1021800022ecf0a3edf0a3eef0a3eff022e0f8a331
:10219000e0f9a3e0faa3e0fb22e8f0a3e9f0a3ea68
:1021a000f0a3ebf022cac0e0e6f0a308dafad0e030
:1021b000fa22cac0e0e0a30592f0a30592daf6d0b5
:1021c000e0ca225392fefae9fb7921e7f0a309da8b
:1021d000fae8f0a3ebf9f0a3ecf0a3edf0a3eef036
:1021e000a3eff0a3e520f0a3e5f0f0a3e592f0a3c0
:1021f000e584f0a3e585f0a3e581f0a3e531f0a344
:10220000e532f0a3e533f0a3d0e0fad0e0f0a3cac2
:10221000f0eac0e0e0c0e07a007b00225392feca00
:10222000c0e0ebc0e07921e0f7a309dafae0f8a317
:10223000e0f9a3e0fca3e0fda3e0fea3e0ffa3e040
:10224000f520a3e0f5f0a3e0c0e0a3e0f584a3e06f
:10225000f585a3d0e0f592d0e0fbd0e0fae0f5817f
:10226000a3e0f531a3e0f532a3e0f533a3d0e0d04d
:10227000e0e0c0e0a3e0c0e0ea4b70027a0122b9de
:102280000010bb0008e88af084f8aaf022e4fbc83a
:10229000fa22eb70227b10c833c8c933c933500708
:1022a000c39ac3dbf280069a50012adbeac833f4f2
:1022b000c8c933f4c9fa2275f008e4c833c8c93371
:1022c000c933c99ac99b5004c92ac93bd5f0ecfb54
:1022d000c833f4c8e4c9fa22600d08c6a2e713c6e1
:1022e00018c613c6d5e0f322600c08c6c313c6187f
:1022f000c613c6d5e0f422700422600d18c6c3339d
:10230000c608c633c6d5e0f41822253210af08f54a
:1023100032400c15338008f53240021533d2af221b
:1023200000c0d0253210af08f532500c05338008bc
:10233000f53250020533d2afd0d0222532f58210cb
:10234000af08f532400c15338008f53240021533e2
:10235000d2af85338322c5822532c582c58335330a
:1023600010af07f5338582328007f533858232d28c
:10237000afc583222532f582e43533f58322253239
:10238000f584e43533f585222532f8e43533f92236
:102390002532fae43533fb222532fce43533fd22c5
:1023a000e4735392fe2532c582c0e0e53334ffc5a5
:1023b00083c0e0e532c3958224f810af08858333eb
:1023c0008582328008858333858232d2afcef0a3f6
:1023d000e520f0a37821e608f0a3defaeff0a3e50c
:1023e0008124faf8e608f0a3e608f0a3e608f0a3d3
:1023f0000808e608f0a3e608f0a315811581d0e0ef
:10240000fed0e0f8158115811581e8c0e0eec0e04e
:10241000225392fe2532c582c0e0e53334ffc583e6
:10242000c0e0e532c3958224f910af088583338577
:1024300082328008858333858232d2afcef0a3e525
:1024400020f0a37821e608f0a3defaeff0a3e581ff
:1024500024fbf8e608f0a3e608f0a30808e608f075
:10246000a3e608f0a315811581d0e0fed0e0f815b1
:10247000811581e8c0e0eec0e0225392fe853383ef
:10248000853282e0a3fee0a3f5207821e0a3f608e0
:10249000dffae0a3ffe0a3c0e0e0a3c0e0e0a3c058
:1024a000e0e0a3c0e0e0a3c0e010af088582328581
:1024b00083338008858232858333d2afd083d08244
:1024c0005392fe0211295392fe853383853282e0b6
:1024d000a3fee0a3f5207821e0a3f608dffae0a34d
:1024e000ffe0a3c0e0e0a3c0e0e0a3c0e0e0a3c041
:1024f000e010af088582328583338008858232857b
:102500008333d2afd083d0825392fe22c0925392b3
:10251000fec0d02532c582c0e0e53334ffc583c09c
:10252000e0e532c3958224f210af088583338582bb
:10253000328008858333858232d2afc8f0a3e9f0b8
:10254000a3eaf0a3ebf0a37921e709f0a3d8faec12
:10255000f0a3edf0a3eef0a3eff0a3d0e0f0a3d052
:10256000e0f0a3d0e0f0a3e520f0a3e5f0f0a3d0e5
:10257000e0f0225392fe853383853282e0c0e0a3ef
:10258000e0f9a3e0faa3e0fba37821e0f608a3dfdb
:10259000fae0fca3e0fda3e0fea3e0ffa3e0c0e0bf
:1025a000a3e0c0e0a3e0f5d0a3e0f520a3e0a3f50d
:1025b000f0e0a3c0e010af08858333858232800845
:1025c000858333858232d2afd0e0d082d083f5923a
:1025d000d0e0f8d0e032e584f0a3e585f022e0a376
:1025e000f584e0f58522740480067402800274018b
:1025f000c0e0f40412233bd0e01221a52274048031
:102600000a74038006740280027401c0e0f40412ac
:10261000233bd0e01221b222d083d082c5f0e493d4
:10262000a3c5f0c395f0f5f0e493a3c395f040057e
:10263000e5f0048001e475f002a42582f582e5f05e
:102640003583f583e493a3c0e0e493c0e022d08314
:10265000d082e9c0e0e493a3c386f0c5f095f0f919
:1026600008e493a386f0c5f095f0700be493a3c340
:10267000994005e9048002a3e475f002a42582f5df
:1026800082e5f03583f583d0e0f9e493a3c0e0e47c
:1026900093c0e022c0e0c0d075d008c092c082c014
:1026a00083c0f0759800e5a8f8c2af5392fe90047d
:1026b000d4e0d2e1f0753400e8a2e7e433fee8a20a
:1026c000e792af1212eed0f0d083d082d092d0d069
:1026d000d0e032c082c0835392fe9004a3e4f0a302
:1026e000f0a3f0a3f0d083d0822274f712241179e2
:1026f000001219909003ef122f12eac398f8eb9989
:10270000f9e82404fee439ff9003fce0fca3e0fdbb
:10271000c3ee9cef9d402e9003fae0fca3e0fd90f9
:1027200003fee02af8a3e03bf9e8c39cf8e99df931
:102730009003ef122d30a3ecf0a3edf09003fcec2e
:10274000f0a3ed80239003ef122be99003fc122df0
:102750000e9003fc122f129003f1122d309003f80b
:10276000e070047402800114f07aed7b0312381bd0
:10277000800ff08532828533831225de74021223a6
:10278000207f020224c674f7122411e9fe9003f997
:10279000e0f8ee600924fe601d14601a8032900398
:1027a000f6e0a2e35009e860279003f9148020c204
:1027b000e2f0d2e380199003f6e0a2e2500c740834
:1027c00068600d9003f9e0048005c2e3f0d2e2f006
:1027d0009003f7e070089003f574fff08048906074
:1027e0000a122be1703d90618fe0c0e09003f9e0a8
:1027f000f87408c398f8d0e0b800028004c313d876
:10280000fcf52174ff6521700990600ae4f0a304cf
:102810008010e5212401f8e43400f990600ae8f022
:10282000a3e9f01226ea02278174f7122411e9fec7
:1028300024fc600624fe602a800d9004bce0640144
:10284000705d1216de8058900416e06401701390db
:102850000410e4f0ee700b7b091239bcfa79001217
:102860003a85900410e0700890040e74fff0802ff9
:1028700090618fe0ff79001219908b22a9229004b9
:1028800012e02af8a3e039f9740f5ffae82af8e4b5
:1028900039f9900408122d307a067b0412381b0295
:1028a000278174f712241174fe12233b1225d6904f
:1028b0000460122f12e82412fae439fb90605ce005
:1028c00060088a828b83e0d2e1f0e82430fce439ae
:1028d000fde82432f584e439f58590605ae070060d
:1028e00090605ee060368a828b83e0a2e14019d27c
:1028f000e1f0e82422f582e439f583122bd9122283
:10290000f78c828d831232d7e40592f0a3f0790020
:102910008532828533835392fe022779e81232b5dd
:1029200039f58312362d858482858583e02ef0a3c8
:10293000e03ff08c828d830592e0fca3e0fdc305af
:1029400092e09ca3e09d50c688828983a3a3a3a3a1
:10295000a3a3a3a3a38582848583858a828b83e036
:10296000a2e1500474088002743e0592f07b028854
:102970008289830592a3a3a3a3a3a3a3a3e0fa79c7
:1029800000123a857901808874f512241174fe12c0
:10299000233b1225d6122bd1240af584e43ff5857a
:1029a0000592e0fc7003022bcc122ef20592122f3e
:1029b000128e828f83a3a3a3a3a3a3a3a3858223a1
:1029c0008583248e828f83a3a3a3a3a3a3a3a3a3fe
:1029d000aa82ab83ee24341235c7687003a3e06982
:1029e000701a74026c7003022b6574016c607a7447
:1029f000096c60258a828b8374228058ec1460698c
:102a0000147003022b6524fa601c14600c146045da
:102a1000147003022ba8022bcc906008e0a2e650b1
:102a200003022bcc802fee2439f582e43ff583801e
:102a30001388828983a3a3a3e064037003022bccd1
:102a400088828983122be170e88a828b83e0641389
:102a500070037416f07b02852382852483e0fa7963
:102a600000123a857901022bceee2455123227ee60
:102a7000244cfce43ffdea24fff521eb34fff52272
:102a8000e521687003e522697075ee244d122c6f04
:102a90008e828f83122be78c828d83e025e0f8e411
:102aa00033f9e82403f85001098e828f83a3a3a38e
:102ab000a3122d31900491e0a2e050098e828f8301
:102ac000a3a3122d2c9004abe4f0a3f0a3f0a37405
:102ad00002f0900491e0a2e04003022bcc906062ef
:102ae000e4f08c828d83e0f875f0e2a4c8aaf0755a
:102af000f004a42af9e8122f04122d30022bccea9c
:102b0000687002eb696003022bcc75210975220005
:102b100078211225eaee241bfae43ffb121d98747b
:102b200002122320900491e0a2e05007eefaeffb9e
:102b3000123233e40592f0ee2422f582e43ff5836d
:102b40000592122bd91222f7ee2430f582e43ff5dc
:102b5000831232d7ee2432f582e43ff583e4f0a30a
:102b6000f07b08805ae8240108500109ee245c1229
:102b700035c7687003a3e06970527521057522009e
:102b800078211225eaee2457fce43ffdee2424fad6
:102b9000e43ffb121d987402122320eefaeffb12a1
:102ba00016d8e40592f08024eefaeffb1212f4e45a
:102bb0000592f00592900491e0a2e0500f7b07850a
:102bc0002382852483e0fa7900123a857900023065
:102bd0000290046012362dee22122d247403782107
:102be00022122f16e84922a3a3e028f0a3e039f02f
:102bf0002274f812241174fe12233b1225d690047d
:102c000060e0f584a3e0f585122988e9704e12286a
:102c1000a2e97048e584242ef582e43585f583e049
:102c20002401f0a3e03400f0906008e0c0e0e58407
:102c30002436f582e43585f583d0e0f0e584123260
:102c4000b53585122c730592a3a3e028f0a3e039d3
:102c5000f0059290046012322d12381b8532828565
:102c600033831225de74021223207f010224c6f56d
:102c700082e43ff583122c7922e0f8a3e0f9e828fa
:102c8000f8e933f92274f712241174fe12233b126f
:102c900025d68a828b83a3a3ac82ad839004b0ea4d
:102ca000241ef584e43bf5850592e0f8a3e0f9e8fd
:102cb00028f8e933f9900493e0f521a3e01232bb40
:102cc0000592e028f8a3e039f98c828d83122d302b
:102cd0009004ab122d178c828d83122d0e9004adb3
:102ce000122d177a207b4e12227f882189228c8216
:102cf0008d83e09521f0a3e09522f09004b2122d8f
:102d000017e828f8e933f9e8122efc022772c3e02d
:102d100098f0a3e099f022122f16900493122d241c
:102d20001232c122e0f521a3e0f52222a3a3a3a33e
:102d3000e8f0a3e9f02274f712241174fe12233b89
:102d40001225d6122bd12412f584e43ff585059285
:102d5000e0a2e35008c2e3f00592022ee68e828fd5
:102d6000830592a3a3858221858322906062e0601f
:102d7000107910121990852182852283eaf0a3eb45
:102d8000f0122988e96003022eef1228a2e96003fd
:102d9000022eef906008e0c0e0ee2436f582e43fba
:102da000f583d0e0f09061d5e0f89061d7e0680558
:102db000926005e0d2e28003e0c2e2f0059290600a
:102dc00062e09004ad6017e024c0faa3e03437fb62
:102dd000123a5a9004b2123633122efc8015123277
:102de0002d123a449004b2122c75906064e028f0e1
:102df000a3e039f0852182852283e024fff0a3e05f
:102e000034fff0ee242b1235c79004aff0ee2420ef
:102e1000f582e43ff583122be160498e828f83a314
:102e2000a3a3a3a3a3a3a3a3a3e07038ee24321209
:102e30003227ea4b702eee2439123227ea4b7024e7
:102e4000e82401500109900493122d3185218285d7
:102e50002283122f129004b0122d30eefaeffb12e3
:102e60002c8580279004937401f0a3e4f0ee241ed7
:102e7000122c6f852182852283122be99004ab12dc
:102e80002f12852182852283122d0e8e848f850537
:102e900092a3a3a3a3a3a30592906064122f127a16
:102ea000717b0212227f8922e82405f8e43522f999
:102eb000858482858583122d308e828f83a3a3a380
:102ec000a312322d858482858583e0f8c3ea98ebce
:102ed00099a2d265d0335005eaf0a3ebf0122f0f80
:102ee000122ef2122be990046012322d12381b02be
:102ef0002773ee242ef582e43ff58322122f04e897
:102f0000f0a3e92224eaf8e93402f99060642290ff
:102f10000493122f1622e0f8a3e0f92274f512248c
:102f20001174fe12233b1225d68031c2e51239b747
:102f3000c0e09004bae0122fe7d0e0f09004bae0cd
:102f400004f0a3e004f0a3e004f09004bee0700cf1
:102f50007401f07b007a007900123a8590605ae0a3
:102f6000f521906002e0a2e05004780080059060b6
:102f70005de0f89004bbe0fae52128f8e43400f9bc
:102f8000e86a7001e960589004bae0f523740125fd
:102f900023547ff521e523122fe7e0f80808900479
:102fa000bae028f074802521f582e43460f58305c9
:102fb00092900460e0f8a3e0c82408f584e438f5b2
:102fc00085e0a2e70592e04003022f2bd2e5f01244
:102fd0002ff924db1239b7fa122ff94a022f3b8559
:102fe00032828533838024122feb22547ff8748041
:102ff00028f582e43460f583229004bae0122febc6
:10300000e0228532828533835392fe1225de7402dc
:103010001223207f040224c674f512241174fe12b8
:10302000233b1225d689210592900460e0f582a306
:10303000e0f583858284858385a3a3a3a3a3a3a3ab
:10304000a3e0a2e740469004bde0f8906054e0c3de
:1030500098f5229004bde02522f0ae82af83801166
:10306000ee2439fae43ffb121600ea4b6003121714
:10307000e685222374ff2523f5220470e3e521a2cf
:10308000e640097900eefaeffb121756023002c053
:10309000e074f112250c8535c675a70075a100797d
:1030a000501219ae7f01022573c0d075d01875bfbc
:1030b00000d0d032c0e0c0d075d018c092c082c05d
:1030c00083c0f08535c6e591fe759b00f4f59153fc
:1030d00092fe906002e0a2e050047800800278083e
:1030e0007900e844015e6003122f1ceea2e5500453
:1030f000f9123018eea2e75029e5a8f8c2af900403
:10310000d4e0d2e0f0753400e8a2e7e433f9e8a2b5
:10311000e792afe594a2e24009759403e594a2e238
:1031200050faeea2e640030231f4906061e0f990bb
:1031300004bbe4f09004bdf090046012322d8a824a
:103140008b83a3a3a3a3a3a3a3a3e02410601224af
:10315000fc600924fc700f122786806612282980e3
:1031600061121624805c900490e060051460148065
:1031700023906060e06480601be0c0e0123211d0f8
:10318000e08010906058e0f890605ce028f812321f
:1031900011e028f0906060e064806016e0c0e0908c
:1031a0000460e0f8a3e0c82413f582e438f583d086
:1031b000e0f0900491e0a2e05005122d3680031259
:1031c0002bf1906059e0f89004a3e028f09060584b
:1031d000e0f89004a4e028f090605a123208906061
:1031e0005e12320890605ce0f89004a6e028f012cd
:1031f00016128004a2e75003123860d0f0d083d0ba
:1032000082d092d0d0d0e032e0f89004a5e028f04f
:1032100022ea242cf582e43bf583e0fa746b2af56c
:1032200082e43404f58322f582e43ff583e0faa3d7
:10323000e0fb2274f7122411ea242af582e43bf51c
:1032400083e025e0f8e433f974b628f58274083990
:10325000f583e02432f8a3e03400f9ea1232b53bfa
:10326000f583e0f521a3e01232bbe8241ff8e9342e
:1032700003f97a207b0312227f88218922ac21adb9
:10328000227a717b0212227f8a218b227405782197
:103290001222f79004ad1232d7ecf8edf97a717b77
:1032a0000212227f9004ab122d309004b2ecf0a3f6
:1032b000edf0022781241ef582e422f5221232c1ac
:1032c00022e88521f0a4c8aaf08522f0a42afa8574
:1032d00021f0e9a42af922e521f0a3e522f02274e5
:1032e000f712241174fe12233b1225d6900460e0dd
:1032f000fca3e0fd122f0fec2429f582e43df583b9
:10330000ec242bfae43dfb8a848b857401684970b8
:1033100012e0f80592e028fac39425402974db2acc
:10332000fa8023e0f521e88521f0a4f8aaf08521b0
:10333000f0e9a42af90592e0fae82af8e439f97ae2
:10334000257b0012227feaf0ea131313541ff8ecd6
:1033500028f8e43df9e82424f582e439f583059260
:10336000e0c0e074075af8d0e0b800028004c3134c
:10337000d8fca2e040288005e8cac39afaec24e50c
:10338000f582e43df583e0f8eac39850ebec2af8c7
:10339000e43df9e824c0f582e439f583e0faec2451
:1033a0002cf582e43df583ea02277274f6122411ab
:1033b00074fe12233b1225d6900417e09060026041
:1033c00004740e8002740ff0900411e0906001f01c
:1033d0009008c612218d9061951221991217629062
:1033e0000416e0f5217401652190040f7040e0544b
:1033f00002f97a187b0412164290040fe0a2e05002
:10340000097a9d7b0475214080077a977b0475219a
:1034100000a2e150047e8080027e0075230678239e
:103420001225ee7c187d04e5214e44018068e0a25f
:10343000e050087a9d7b04784080067a977b047878
:1034400000059290043d1226097c1e7d0474ca2555
:1034500021f582e43408f5830592e048f912164814
:103460007401122320900416e0f86005740268705d
:103470002e90040fe0a2e050087a9d7b04784080f3
:10348000067a977b047800059290045d1226097ce9
:103490003e7d04e84404f91216487401122320907a
:1034a000040fe0a2e0e433f912163c759100900499
:1034b00017e0906182600474c8800274c0f08532a5
:1034c000828533831225de74021223207f030224b7
:1034d000c6c082c0835392fe906002740ff09003c6
:1034e000f8e004f064037002e4f0e024259060004a
:1034f000f09008c612218d9061951221999003f6e3
:10350000e05420f912163c1217629003f6e0a2e193
:103510005004d2f08002c2f0a2f0e43390600cf0cc
:103520009003f6e0a2e1503575d90da2e55004787c
:103530004080027800e84403f5d9e0a2e550067a1d
:103540009d7b0480047a977b047906121618740612
:1035500075d9001470fae5e170fc75e1957591007c
:1035600090618274c10226e474f812241174fe1270
:10357000233b1225d612362012176212361612215c
:103580008d9061951221991236691232df123650f0
:10359000f584e43ff585858482858583123638126b
:1035a0001756ee24121235c7a2e250180592e0f821
:1035b000a3e0f58388820592a3a3e02402f890613a
:1035c000d5e028f0022c5cf582e43ff583e022741c
:1035d000f812241112362012176212361612218d9b
:1035e0009061951221991236691232df123650f528
:1035f00082e43ff583123638121756ee1232b53f89
:10360000f58312363324fcf8e934fff98e828f8378
:10361000122d2c022c6aee2414f582e43ff583224d
:1036200090046012362d906002740ff022e0fea329
:10363000e0ff22122c79e822122f16ee2437f582b1
:10364000e43ff583e8f0a3e9f07900eefaeffb221e
:10365000ee242c1235c7906000f07591009004c8dc
:10366000e0906182f0ee243922ee24361235c790c4
:103670006008f0ee24181235c7906005f0ee2419aa
:103680001235c7906006f0ee241a1235c790600715
:10369000f02274f112241174fe12233b1225d67508
:1036a00021007522007c677d04801b88828983123b
:1036b000362d8c828d83eef0a3eff0888289831201
:1036c00032d7882189228c828d83122bd44f703976
:1036d0008c828d83eaf0a3ebf08a828b83e4f0a3e3
:1036e000f0aa21ab228532828533831225de740253
:1036f0001223207f080224c6e5232527f8e5243578
:1037000028f98a828b83122be7eef8eff9888289f9
:1037100083a3a38a848b850592a3a3e0f523a3e06a
:10372000f5240592e0c39523f523a3e09524f52421
:103730008a828b83a3a3a3a3a3a3e0f525a3e0f52b
:1037400026c3e5239525e5249526a2d265d03340ee
:103750003e8a828b83122d308a828b83a3a3a3a3fc
:10376000858284858385122f12c3e52398e52499e9
:10377000a2d265d033500d858482858583e523f000
:10378000a3e524f08c828d83eaf0a3eb0236e08877
:10379000828983a3a3a3a3a3a3e0f527a3e0f5282d
:1037a000c3e49527f525e49528f526c3e52595235b
:1037b000e5269524a2d265d03350288a828b83a334
:1037c000a3a3a3a3a3a3a3e0a2e750030236f88810
:1037d000828983a3a3a3a3a3a3a3a3e0a2e7500387
:1037e0000236ab88828983a3a3a3a38582848583c1
:1037f00085c3e49523fce49524fd12362dc3ec9e8d
:10380000ed9fa2d265d033500b858482858583ecf1
:10381000f0a3edf0e8fce9fd0236c674f7122411be
:1038200074fe12233b1225d6ea4b6031a2afe4337b
:10383000fec2af1236928a828b838016aa82ab8335
:103840008582848583850592e0f582a3e0f5831265
:103850003692e582458370e4eea2e092af022773d0
:1038600074f512241179001219908a238b24797728
:103870001219ae9061b1e4f0e070f87401f0e06408
:103880000170f8900467122f12900460122d30e836
:103890004970121239a0e594a2e2400302399a75e8
:1038a000940002399a8882898312322d900467ea43
:1038b000f0a3ebf088828983a3a3122d2488828948
:1038c00083a3a3a3a3e02521f8a3e03522f9e824ec
:1038d000fdfee934ffff90606074801239b7241058
:1038e000601424fc600624fc600780451233ab8022
:1038f000501234d1804be521c39523e5229524c392
:103900009400a2d265d0335023e5232401f521e4ad
:103910003524f522c3e5219ee5229f4009e52124b7
:1039200001fee43522ff9003ef1232d712176880b0
:1039300010900491e0a2e050051235688003123522
:10394000cfaa21ab2279301219a2eefaeffb79400f
:103950001219a279541219aee521c39523f8e52274
:103960009524f9c3e89401e99400a2d265d03350bc
:103970000c12177ae5e170fc75e121801d90036758
:10398000e0a2e04012aa21ab2212199c9004a712d7
:1039900021691239a0800312177a121864023013b9
:1039a000e5a8f8c2af9004d4e0c2e0f0753400e8b6
:1039b000a2e7a2e792af22f01239bc22900460e0a5
:1039c000f8a3e0c82408f582e438f583e02200007b
:1039d000853487c2af22c0e0c0d075d018c092c075
:1039e00082c083c0f074fc12230a5392fe9004d567
:1039f000e0601c121636900367e054117008e5c6ab
:103a000054384487f5c69004d5e4f0c2c78020c27c
:103a1000c7aa32ab33121774e9640170129004d54f
:103a20007401f085328285338312215d1218587536
:103a300034007404122320d0f0d083d082d092d0ee
:103a4000d0d0e03275c3007420c39afa744e9bfb49
:103a5000eaf5a2ebf5a35392fe22c02175c301e55e
:103a6000a2f521e5a375c300f9e5212420f8e93486
:103a70004ef9e8c39af8e99bf9e8f5a2e9f5a3d075
:103a8000215392fe2274f5122411e9feeaff8b21e4
:103a9000753400a2afe433f522c2af900576e0f5ad
:103aa0002474012524540ff523900575e0652370d7
:103ab000057900121a08e52475f003a4f8a9f0743a
:103ac0000328f8740539f9e82442f582e439f583ce
:103ad000eef0e82443f582e439f583eff0e824447e
:103ae000f582e439f583e521f0e523900576f0e5ec
:103af00022a2e092af7f040224c6c082c08374fc7d
:103b000012230ae5a8f8c2afe59585328285338392
:103b10005392fef0e596c0e07401122374d0e0f0f9
:103b2000e597c0e07402122374d0e0f0e8a2e7a2a7
:103b3000e792af7403122374e4f0853282853383f5
:103b400012215d7404122320d083d08222c0e0c0f1
:103b5000d075d018c092c082c083c0f0121b701202
:103b60003afa900608122169e58955ab90060cf0e7
:103b7000e58090060ff090060ce0f4f5899062d095
:103b8000e0f8a2e1502790060ce0a2e5501f53abed
:103b9000df9062d0e0a2e0e433900612f090060cd1
:103ba000e0c2e5f07b307a007906123a8590060c87
:103bb000e0600e7b007a007906123a857900121bcc
:103bc0007cc2c5d0f0d083d082d092d0d0d0e032a9
:103bd000c0e0c0d075d008c092c082c083c0f012cf
:103be0001b70123afa900608122169e58a558df881
:103bf00090060df0e590900610f0e8f4f58a7b0150
:103c00007a007906123a857901121b7cc2eb80b3e7
:103c1000c0e074f012250c9061a9e06017c2afe516
:103c200089f8e5abf975ab00e4f090624bf0888958
:103c300089abd2af900617e0640f7012e5c7f89019
:103c40000368e0f5c790ff1ce0f4f5ae88c7e5bb5c
:103c5000f8e5baf521e8fb900617e025e0f8e43333
:103c6000f9741828f582740639f583e521f0a3eb81
:103c7000f0900617e02410fb7a007906123a85e5e9
:103c8000a8f8c2af9004d4e0c2e2f0753400e8a214
:103c9000e7a2e792af7f02022573c0e0c0d075d0e3
:103ca00018c092c0f0e5d1f875d100c2c0a2e350af
:103cb000097b037a007904123a85d0f0023bc9c02f
:103cc000e0c0d075d010c092c021c022c082c08395
:103cd000c0f05392fe90070e123dda602a9006c99a
:103ce000e0700c7401f07b007a007904123a85eee2
:103cf00090070ef0e5c1c0e074102521f582e43490
:103d000007f583d0e0800be5c4a2e650069006c814
:103d10007401f0023dc9c0e0c0d075d010c092c09f
:103d200021c022c082c083c0f0c2e95392fe900637
:103d3000cbe0fa9006cae09a543ff8602974cc2a86
:103d4000f582e43406f583e0f974012a543f9006c5
:103d5000cbf089c190070ce06870197b027a00797a
:103d600004123a85800ee5a8f8c2af9004d4e0c2f0
:103d7000e3123e488053c0e0c0d075d010c092c05e
:103d800021c022c082c083c0f05392fe90079812d7
:103d90003dda6029900753e0700b7401f07b00fa64
:103da0007904123a85ee900798f0e5f9c0e0749a2c
:103db0002521f582e43407f583d0e0800be5fba2f2
:103dc000e650069007527401f0d0f0d083d082d034
:103dd00022d021d092d0d0d0e032e0f5217401255c
:103de00021543ffea3e06e22c0e0c0d075d010c0c9
:103df00092c021c022c082c083c0f0c2ea5392feaa
:103e0000900755e0fa900754e09a543ff8602974ff
:103e1000562af582e43407f583e0f974012a543f09
:103e2000900755f089f9900796e06870197b027a3f
:103e3000017904123a85800ee5a8f8c2af9004d447
:103e4000e0c2e4123e488081f0753400e8a2e7e465
:103e500033f9e8a2e792af22c0e074f012250c908b
:103e60006206e0f89007f0e048f0906202e0543f0c
:103e7000f521752200740478211222f79007f0e0f2
:103e80004521f0a3e04522f0906204e0543ef52184
:103e9000752200740978211222f79007f1e045227b
:103ea000f09007f0e054046007e054fbf0121ccce3
:103eb0009007f1e054016013e054fef09007ffe03a
:103ec00060097b037a007907123a85121cfc90077f
:103ed000f1e05420600de054dff07b027a007907b6
:103ee000123a85758b00c2e87f02022573033f00fa
:103ef00000030004280d98089007900194011b010d
:103f000095111b08f00939821f0ea4fecd822106ef
:103f100022fb381818162118f0ef3818f2ed38285f
:103f2000f2eb3868f003392a1fe73f08f00428ba9b
:103f30003868f0393c08f1053c88f1173ca8f10ecf
:103f40003ce09f2c1f0128104a291fd63f15d003a3
:103f50003827d00938009004289f3f0128154101d7
:103f6000980128014a25d01f38041f831f0ea4fe84
:103f7000cd042205381421202807a0083f06286810
:103f80001527d0e939202807d0f238832178f102ab
:103f900038042188f1083d0628a14001f004288456
:103fa00038042807a005284d1528f1163c68f1149f
:103fb0003d77cf1240599202d80f3912d007396994
:103fc0009222d00439799242d004380528ef151e88
:103fd0003fc09f04286c3f08f1233c88f1203d0935
:103fe0004028f1103d4540f7c759f2083d930313af
:103ff0001183e1b9f00f3c23e00d3f09d8ea38f90d
:10400000c30b3f68f1033d59f2f23c09d8f9390579
:1040100028bd150528f01501900128214a051f48e3
:10402000f00c3c08f10a3868f1033c98f106390cb1
:10403000960528f9150228843f47a00c960528f319
:1040400015531f0528e31507288ced0528ec1501ed
:10405000280195711b01280ce40528e515511f88de
:10406000f10b3808f1073868f109390128214201bc
:10407000f00b3947d009383521063f28f10338388d
:10408000f10339351f341f04280ce047d0033903ee
:10409000280ce80528c815571f28f00638561f8138
:1040a0001f021f38f0063930215b9005283b15fdb3
:1040b0003f88f1033d0428f7150528811547d013e3
:1040c0003808f10f392c470cf00c38c403b4125cdb
:1040d000110c3e04f00a38c103802801a0411b06e0
:1040e0003f3021043f07284ced4c1b5b9047d01715
:1040f0003827d00328e8390ea4fecd02220d39005e
:104100002208381021002914e00328dd3c4c1bf163
:104110003f05289e15ee3f46181221033f05280251
:104120001588f13039052811150128fb413021008f
:10413000291be00a3d0428f61505280715f6c3518a
:1041400092166a3b906b080428ed150428fe150ba7
:10415000f0fb3917d004382d1f0128c43f03282154
:104160004701f008390328314701f00439a295804e
:1041700090033fc29500920328b615201b5490016e
:1041800028b33f08f10539052111900128214a384b
:10419000f103390021023f302110216a030428c2b3
:1041a000156b033141224128f1093d02f00239f239
:1041b0009101f00b39ff28f191083f02f0023952ca
:1041c0009201f00339ff28f193f7cb1b0602390760
:1041d000a4b20c073d47d003286e382490032875fd
:1041e0003f1690b6080428b115a6030428ae153b67
:1041f000e0f7ce28f1703c012807a0f090a00668f7
:10420000f1323d149030f0053938f103285e38075b
:104210003f50f003285a3958f10328573838f10431
:10422000380328ab15033f032889150328751501aa
:104230002807d0033907a1563f424130f00c390717
:10424000a112d0033807d84e3887a0c14041d04ac8
:1042500038f7ce483f38f1033822d0443807d842e7
:104260003907a1403f78f1123847d02d3800f003cc
:104270003860f00639c14011d0073887a0113f10cf
:10428000f0033820f0ab3977cf0b3f00f003381044
:10429000f0a539414181d0043903285015093f0365
:1042a000286c1568f10539414141d0023907b81031
:1042b000f0063903283115012807d0033807d81232
:1042c0003907a1103f40f00228fc390328141507d4
:1042d000d8f838083fa10383403112310511d002cc
:1042e0003907a14bf0063c04281d1504282e15faa9
:1042f0003f042818151bf0fd3d38f103380328a1b1
:1043000015f7cd0328214701f0053903283147016e
:10431000f0033807a2f7ce224082d00a3806030401
:10432000281415069376062611960404280e157196
:10433000034112002871c021070438e7cf419804d7
:104340003f17d0043951980728214817d00538f273
:1043500095202800901d3f07d20438c2950092187e
:104360003f07d10438d2950094133f07d40438e2b4
:104370009500980e3f809028f10a3d3190a10631ba
:10438000f0063903a4b2950228aa1500a1a295024d
:1043900028a615201b28f1633d08f10a39012807da
:1043a000d00739072851411128c14a012807a01711
:1043b000d20539e3cf8ad0023813a007d20539b32a
:1043c000cf4ad0023843a083d01e393103111231b5
:1043d0000521d00739319907282148002915e01314
:1043e0003f529502287c15454003d10d3942950274
:1043f000287615281f21990728214803d2043862fe
:104400009502286d1573cf834808f1093977cf17c6
:10441000d0063907d203390ad1023887a034900771
:10442000d2073807d803383090543f07a8023ff727
:10443000c718f15a3927d04c39314011d049398742
:10444000d0073917d0453907d203390ad141380589
:10445000f04b39414001f0483850903b3f68f1152e
:104460003878f13938149017d03d3907d23d398763
:10447000d003383490393f07d137391190012821c2
:104480004a409003286e15253f47d01c38249007da
:10449000d30c3911900128214a87d00838514400a3
:1044a0002911e0043a514c023877cf17d01b3987d5
:1044b000d003383490193f07d31739c14021d014a5
:1044c00038073f17d00f3907d303383090023f0029
:1044d0009044900a3f249017d0053907d30539340a
:1044e00090033fa09f44900221c190511b81213431
:1044f0002124f0083927d004390c9cfd2bae3f1045
:10450000904490b7cf34f00e3953210328e19571d0
:104510001b541f0f28cc9506282141f1c081111c86
:1045200009143f0190511b0728f19f711b80211432
:10453000f00128863854f0fd2b0a380128ad3f548d
:104540001f032864151028cced03286d15762178fb
:1045500021501f0128a29a217001b2218001b221ad
:10456000802ce30328601574210128ace408f107ce
:104570003c88f1033d0228971503282115011f01ee
:1045800028349d03285015201f002168f0093d069e
:104590009058f003390728364102289315fa3f074f
:1045a00028504078f10439331f321f042150000095
:1045b000dc01287c3828f1103d8340f7cb31031112
:1045c00012310521d0033903d1033900d81038073f
:1045d000a41b901a90163f00d80128683998f1075b
:1045e000394b700128e2412b0800288e3f10280724
:1045f000a04b701bf0fc2bed3c4a70224128f1309f
:104600003d02f00239f29112e0b20cfc2be23c4187
:104610009031061111ff2be29f3204520022111a31
:10462000042a043240002862c018f1033927d00d53
:104630003922f0093907280141b109002921e0098f
:104640003a0aa1073f42f00339face033f62f0f97c
:104650003818f1253977cf0ad1223887a0203f02b8
:10466000f00239529212e0b20cfc2bb33c68f1120a
:104670003d38f1153887d013390128314201f00f48
:1046800038402807a00728914231c0c1a0072891cf
:104690004a063f02280190710621121a04ff2bf2ec
:1046a0009fb2084be0a60302280c15260302280936
:1046b0001568f1293cfbf0273c6290467002280106
:1046c00015d2370428609662904670062d0128f9ad
:1046d00015c23778f11839d04000d81538dbf013ff
:1046e0003c829046700128ed15d237764400d40301
:1046f00038060e023f060d41700128e31541708611
:10470000120128df153290b20c053d46700128d900
:1047100015fb3f08f1063941721128c14a012807eb
:10472000a0ef28f7cf28f11e3d83403090a006313e
:10473000031112310521d003398295043f30f00472
:104740003972950028cc1553c843d0023823a007ee
:10475000d4023803a130f0023903a28348929500b5
:1047600028be1506900bf005380128ab15591ffb24
:104770003f0ea4fecd0122043902286a15fa3f55e6
:104780001f1121031f249008f10f390ad103398723
:10479000d02438314011d0213905f0213941400170
:1047a000f01e3850901b3f48f1073828f103385865
:1047b000f1063987d0143877cf1490113f78f1057e
:1047c0003911900128214a093f98f1093982950051
:1047d000288a15281f5490033f009044900ea4fe91
:1047e000cd0322043902283415fa3f13212c180175
:1047f000210321741ff1900000f1370190511b0734
:1048000028f19f711b802132210728914231c00776
:1048100028914abf28f7cf28f1063c88f1043d9241
:10482000955e15281f44f0383814f00a3854f0fb10
:104830002b8e3801280ce40128f615fc2b023f01d1
:10484000289015009027d0283902d8083838f1244c
:1048500039329001289215e237193f19e089f204a4
:104860003c38f11a39599238f1033901288615126a
:10487000409103002951e2120e12d0f0380128862f
:10488000150128b9151240012891153199072821e1
:10489000482c18fe2b553f0128104a0028a915fb6b
:1048a0002b2b3ff09f043fd09f023fb09f0028d0aa
:1048b000152c1ff23f28f1053c68f1033d149005cb
:1048c0003f2090023f10904490419807282148389b
:1048d000f1fe2b0a380028b515fe2b063f2170117a
:1048e000e021800200012821410728214821781178
:1048f000e021880200f7c7761571033112a1050186
:10490000d4023907a80428649631150238f7c70481
:1049100028c4f6fb3c0200fe28f7cf641551417114
:1049200011a10501d80339012807a064911f1503bf
:1049300038fe28f7cfc4f1fb3c0200f7c7531551ee
:1049400041022807a00ad40339fd28f7cf5111a14d
:104950000501d4023907a8c49104286596071502f9
:1049600038f7c7563124f2fb3c02000028db150063
:1049700028ec15412d160c0200f7c73415d032d3a0
:1049800032234268f109394141904041d004385006
:10499000000306023f03033142022807a00ad404a1
:1049a000395100fd28f7cf1306449204286596007c
:1049b00028b9150028ca155631ff28e19f40700616
:1049c0000c023813068ea0810064e044f5f83c0028
:1049d00029f4e2a4f2ed3c03f0023807a8d32fd06b
:1049e0002f02009bf0023c020007a12de00200987c
:1049f000f10938102807d0033908f1043831990734
:104a000028214808f10c39012807d0093807285116
:104a1000411128c042010c03380728504911900861
:104a20002807d005380628b148f728f7cf0428070b
:104a3000d005380628a148fb28f7cf3021291f02ce
:104a400000311fff28f19f411b301f31210200025e
:104a50002101210321532309380628d14001d11215
:104a6000384198072821480b3f54230c385021f136
:104a7000910000f137741ff1900000f13768f002e7
:104a80003c2b1f0190511b81210728f19f711b8036
:104a9000210728914231c00728914abf28f7cf3219
:104aa0002134210200082807d007390628b1400127
:104ab000f00438082807a0020004280d98fe2bf403
:104ac0003f402807d00d390ea4fecd012204390045
:104ad00028bf15fa3f661b112100291be0020007c1
:104ae00028a64a0ea4fecd012204390028b115fae9
:104af0003f01283142b10941e0053a08384bf00c3a
:104b000038ea3d0728a142611be73f07289142711f
:104b1000cf0728914af73f0728914281a2072891a1
:104b20004ada3f0ea4fecd0222043900289115fa7c
:104b30003f4618122100291be01bf00639581f06ba
:104b400028e0400128004a020017d00a3931220625
:104b50003817a0419807282148033f0728a6480294
:104b600000124038f1093802d80739910300294171
:104b7000e2120e120d1248020047a07b280c9c1076
:104b8000215215ff2b5e15b7cf020059f20339638e
:104b900091083f69f20339e392043f79f203394304
:104ba00096020004280d98fa2b143f02d40738917e
:104bb00003002901e2117006286148020088f10a09
:104bc0003c012831410728814ab1460328314fa1d1
:104bd000460f3f0728894a28f1063d314403283112
:104be0004f5140053f552851950328314f811103fe
:104bf00028214f0200e3f3033cf190033f23e051ef
:104c0000920628614a0628434802007b2177214109
:104c1000900000f137702175217a218cee04155235
:104c20001f801f02004c1b001f47d0033827d009ec
:104c3000390ea4fecd002203390b15f73f102102d7
:104c40000004280d9838f1fe2b2738fe2b3c3fd26c
:104c50003202180119210601d41a381218162162dd
:104c6000f003392a1f2d3f12f2153822f22838fea0
:104c70002bef1568f0063c61900128114afe2bb815
:104c8000153021280304280d98f92b373f01d11442
:104c9000381421202807d00d3878f1123904231058
:104ca00038714401f002398144002911e0714c0847
:104cb0003f202807a0053f01d20538152127a0d2a3
:104cc0002f020011d00638102104280d98fd2bf377
:104cd0003ff2ce5200121bf43f030603020203030d
:104ce00002060203030105020201000101010100a5
:104cf0000003020000050002070700020301010192
:104d00000806060503040401030602020202010f5d
:104d10000008030505020700000003020201050563
:104d20000101090101020101020201010305000163
:104d30000003010000000101040402030204010455
:104d4000010074f51223a2eafeebff8923e9c39464
:104d50001140037523108523217522007821122527
:104d6000ea121d98740212232074106523602685b0
:104d70002382aa827410c39af52195e0f522782146
:104d80001225ea7c007d00ee2afae43ffb121d9e0c
:104d900074021223200251dc74e81223a274fe1262
:104da000233b1225d674fb12230a8a298b2a752be2
:104db00000752c008a828b83782112213fe5c7c0c1
:104dc000e07404122374d0e0f0900368e0f5c78a21
:104dd000828b83a3a3a3a3e0fa8529828b838a25f0
:104de000e4f526f527f528782512206890f7e8e005
:104df000f52de4f52ef52ff530740b782d122036b5
:104e00007825792d121e1e5003024f4e8529848b62
:104e1000850592a3a3a3a3a305929009507821121c
:104e20002068eafee5215403fc7003024eb97403c6
:104e300012237474fff0740212237474fff074016f
:104e4000122374124f938c82aa82740412571b503f
:104e5000057404c39cfe8e2575260078251225ea6c
:104e6000ac84ad857402122374e5822afae435839a
:104e7000fb121d9874021223207904ac32ad3385e5
:104e8000212585222685232785242874027825124a
:104e9000201daa25ab2612142ce5842ef584e435ba
:104ea00085f585852982852a83a3a3a3a3e0c39ed4
:104eb000fe9009547821122068eec394044031ee2c
:104ec000f9ac84ad85852125852226852327852477
:104ed000287402782512201daa25ab2612142c8ec8
:104ee00025e52554fcf8e58428f584e43585f58529
:104ef00074035efc605e740312237474fff074022a
:104f000012237474fff07401122374124f938c25d2
:104f100075260078251225eaac84ad85740212232b
:104f200090121d987402122320ac32ad338e25e40a
:104f3000f527f52878217925122055740278211259
:104f4000201daa21ab227404f912142c8006752ba3
:104f500080752c017404122374e0f5c790063ce5bb
:104f60002bf0a3e52c1261a674071266ea1225ea5b
:104f70001264391223a07402122320740512232014
:104f80008532828533831225de74021223207f103e
:104f900002247a74fff0853282853383f02274e82c
:104fa0001223a274fe12233b1225d674c012230ac8
:104fb0008a828b838582848583850592a3a3a3a39c
:104fc000e0fee5c7ff900368e0f5c790f7e8e0f57d
:104fd00025e4f526f527f528740b7825122036ee02
:104fe000c3944140027e400592782912213f7825e2
:104ff0007929121e1e40030250c6852921852a22c6
:10500000852b23852c248e2de4f52ef52ff5307875
:1050100021792d12205578217925121e1e5005e583
:1050200029f404fe900950782912206885292185e9
:105030002a22852b23852c24740f782112201de52c
:1050400021f5238523c7ac29e52a4480fd8e82857e
:105050008225752600ec2ef521e43df522c3e525d9
:105060009521e49522500c78251225ea740212232a
:10507000908049e525c39521f525e49522f526780c
:10508000251225ea7402122390121d98740212232d
:105090002074012523f5c778211225ea7c007d8044
:1050a000c3e49521fae49522fb7402122374e5828d
:1050b0002ef8e43583f9e82afae93bfb121d9874cf
:1050c0000212232080027e008fc7ee90063cf0f58e
:1050d00025f582ac827d00240112540af526f527bd
:1050e00090095478251220687408782512203678a3
:1050f0002179251220e090095878211220f390069a
:1051000038782112214ea832a933882189227821aa
:105110001225ea7a387b0679051264431223a074bb
:10512000021223207440024f7d74f51223a274fef4
:1051300012233b1225d6eafeebff7523008e828fe9
:1051400083a3e0fb74ff6b601e7c007d007a047912
:10515000008e828f83e025e0125ef21264481223f3
:10516000a0e970037523018e828f83a3a3e0fb74f3
:10517000ff6b60347c007d007a0379008e828f8320
:10518000e025e0fee433ff74a42ef58474093ff5b6
:105190008505921264481223a0e97004d2f08002bf
:1051a000c2f0a2f0e4334223e523a2e05006788067
:1051b00079018004780079001251e1740e1266ead8
:1051c0001225ea1264391223a074021223208532b8
:1051d000828533831225de74021223207f0302248a
:1051e0007a90063ce8f0a3e9126bd0e4f0a32274b5
:1051f000ec1223a274fe12233b1225d674c0122394
:105200000a8a848b85858482858583a3a3a3a3e0f2
:10521000f8c39440500488218003752140e5c7f508
:1052200022858482858583782512213f740f782515
:1052300012201de525f5c7852182ae828e237524b7
:105240000078231225ea85848285858378251221ba
:105250003fac25e5264480fd7402122390121d9870
:1052600074021223208522c78584828585831221ba
:105270008d90063c122199ee900640f02405e4340e
:1052800000f526e4c526f525e4f527f528e0f529ff
:10529000e4f52af52bf52c90095c7829122068900a
:1052a000096078291220cd740878291220367825d3
:1052b00079291220e090096478251220f3900638ad
:1052c000782512214ea832a9338823892478231205
:1052d00025eaeefc7d007a387b06790912644312d8
:1052e00023a0740212232074401223208532828569
:1052f00033831225de74021223207f0c02247a7479
:10530000f61223a274fe12233b1225d674f912233f
:105310000a12165a7f007e00ac32ad33740112239c
:1053200090eef9121984e9601c7401122390853201
:1053300082853383e0f912164ee9600890063c122c
:105340006b7f800e0f0eeec3940840cc90063ce4b9
:10535000f0a3f0efa3126ba874071266ea1225ea15
:105360007c007d007a387b0679071264431223a003
:1053700074021223207407800e1266ea1225ea12c4
:1053800064391223a074021223208532828533836c
:105390001225de74021223207f0202247a74ec129a
:1053a00023a274fe12233b1225d6e9fe8c258d26fe
:1053b00090063ceaf0a3ebf0eea3f0f529f582ac01
:1053c000827d00240312540af52af52bf52c90094e
:1053d0006878291220687408782912203678217993
:1053e000291220e090096c78211220f39006387879
:1053f0002112214e78251225ea7a387b0679071288
:1054000064431223a074020252e9e43400f522e45a
:10541000c522f521e4f523f5242274f61223a274a3
:10542000fe12233b1225d674fc12230aea146006ee
:1054300014603b0254c7900607e024026005146024
:1054400009800e90063c7484800c90063c748a801f
:105450000590063c74851266dc1225ea1264391246
:1054600023a07402122320900607e4f080597e00e6
:10547000aa32ab33eef912197ee96044ee90063c95
:10548000125f5190063df07401122374e0540190b4
:10549000063ef07403122374e090063f1266f37424
:1054a000041261a0141266ea1225ea7c007d007adb
:1054b000387b0679081264431223a0740212232059
:1054c0000eeec3940840a9740402538774f21223a9
:1054d000a274fe12233b1225d68922ebfeea600d50
:1054e00024fb60291470030256c20256de900607a0
:1054f000e0fa744012571b4003025622e0f8744051
:10550000c398f52402562490060774fef0ee70034b
:105510000256de900607e0a2e75027eec394414012
:10552000047f408002eeff7cc77d05effb1256f33f
:105530001264481223a0e9cec39efe70030256de19
:1055400080d9c39404504ce07016059290097012f3
:1055500025fd7b017a0079081219c07404122320fa
:10556000900607e0f87404c398125726500ae0f832
:105570007404c398f52180028e21125710ab2112ba
:1055800056f31264481223a0e9cec39efe9006078c
:10559000e029f0e0c39404500302550de064047068
:1055a000189005c7e06003025507a3e0c3943d408f
:1055b0000890060774ff02550c900607e0f8900566
:1055c000c8e02404c398f8c39e5004882480028e47
:1055d00024e8601e900607125710ab241256f312ef
:1055e00064481223a0e9f8e524687006900607e0f5
:1055f00029f0e524cec39efe900607e0fa9005c888
:10560000e0790024045001096a49600302550d90b5
:105610000607e0f97ac77b05121aaa900607e4028a
:10562000550c8e24e524c39e50030256be852425c6
:1056300075260078251225ea74c72afae43405fb9a
:10564000121d987402122320900607e02524f0e032
:10565000c3940450030256de9005c8e0fc90060790
:10566000e0faec2404f8e43400f9ea98e499406e96
:1056700074042cf524f97ac77b05121aaaa8249081
:105680000607e0c398f07c00900607e0f8ecc398aa
:1056900050bd8c82a882852425e82525fae43400b3
:1056a000fb74c72af58274053bf583e0c0e074c73c
:1056b00028f582e43405f583d0e0f00c80ca790047
:1056c000801ee5c7f525900368e0f5c790ff25e04b
:1056d000f974ff6960057a00121bac8525c7790152
:1056e0008532828533831225de74021223207f06e1
:1056f00002247a7a027900e52225e0f525e433f5e3
:105700002674a42525f58474093526f5850592228d
:10571000e0f874c728fce43405fd22c39a1257262a
:10572000a2d265d03322f895e0f98e25c3e89525fd
:10573000e994002274f61223a274fe12233b122570
:10574000d68a828b837c007d00e0f8c394034005f9
:105750007c800d80548582848583850592a3a3e88f
:1057600070150592a3e0f58f0592e0600553f7df11
:10577000803743f720803274016870150592a3e0ea
:10578000f5f60592e0600553f7bf801d43f74080b2
:1057900018e06004780080027880e5f75460fa052c
:1057a00092a3e0541f484af5f7125aab125ad2742a
:1057b0000502537974f61223a274fe12233b1225bc
:1057c000d68a828b837a007b00e0600814600f1415
:1057d0006016801e125803558048f58080171258b5
:1057e00003559048f590800d12580355a048f5a038
:1057f00080037a800b90063ceaf0a3eb125ad21495
:105800000253798582848583850592a3e0f9059208
:10581000a3a3e059f8e9f42274f51223a274fe124e
:10582000233b1225d68a218b228a828b83a3a3a3b2
:10583000a3a3ac82ad838a828b83a3a3a3a38a8410
:105840008b850592a3a3a3a884a9858a848b85a3ad
:10585000a3aa84ab85852184852285a3ae84af85e8
:10586000852184852285e0701475864275c40212f4
:105870005896f5c58c828d83e0f5c2801275f8428a
:1058800075fb02125896f5fc8c828d83e0f5fa12b6
:1058900072bb040251bd0592e0541ff52188828934
:1058a00083e0c43354e0f88a828b83e0c4333354fa
:1058b000c0f98e828f83e0a2e0e433131349484598
:1058c000212274f01223a274fe12233b1225d68ae1
:1058d000848b85858482858583a3aa82ab83e0c37c
:1058e0009441402390063c7482f0a37401125f221d
:1058f000a3e4126701f0a374041266ca7409f0e409
:10590000f521f5220259aa7c00800c8df9a2f840fd
:10591000fce5f90592f00c8a828b83e0f8ecc398e1
:10592000502f8c82a882e58428f582e43585f583a2
:10593000a3a3e0fd748728f8e43405f988828983fd
:105940000592e070c68dc1e586a2e040fae5c1800f
:10595000c290063ce4f0a3125f228a828b83e0f5ba
:105960002590063ff0752200240450020522e4c56c
:1059700022f521e4f523f524f526f527f5289009ed
:1059800074782512206874087825122036782179d9
:10599000251220e090097878211220f390063878bb
:1059a0002112214e75218775220578211225ea9052
:1059b000063f12618679081264431223a074021212
:1059c00023208532828533831225de740212232040
:1059d0007f0802247a74f61223a274fe12233b126b
:1059e00025d68a828b837c007d0085828485838591
:1059f0000592a3a3a3a884a985858284858385a312
:105a00000592e014600a24fe604914606b025a9dfe
:105a10000592e0f521c394054003025a9d125aba3b
:105a2000c0e074a02521f582e43462f583d0e0f073
:105a3000888289831261800592e025e0f8e433f9d9
:105a400074a628f582746239f583ea0592f0a3eb17
:105a5000f0804d0592e0f521c394025040125ab3f4
:105a6000700b8acc88828983e0f5cd80338ace881a
:105a7000828983e0f5cf80280592e0f521c3940266
:105a8000501b125ab3700b8aec88828983e0f5edc3
:105a9000800e8aee88828983e0f5ef80037c800d9a
:105aa000125aab125ad2740d025379127273ecf07f
:105ab000a3ed22125abafae521220592a3a3e054db
:105ac0000733333354f844042290063ce521f0a315
:105ad000e522126bd07407f0a32274f01223a27493
